:100000000C9434000C943E000C943E000C943E0082
:100010000C943E000C943E000C943E000C943E0068
:100020000C943E000C943E000C943E000C943E0058
:100030000C943E000C943E000C943E000C943E0048
:100040000C943E000C943E000C943E000C943E0038
:100050000C943E000C943E000C943E000C943E0028
:100060000C943E000C943E0011241FBECFEFD8E04C
:10007000DEBFCDBF0E9440000C9475000C940000C0
:1000800081E884B98AB941E028EC30E050E845B90C
:100090004BB980E593ECF9013197F1F70197D9F766
:1000A00055B95BB980E593ECF9013197F1F7019708
:1000B000D9F745B91BB880E593ECF9013197F1F711
:1000C0000197D9F715B84BB980E593ECF901319751
:1000D000F1F70197D9F715B81BB880E395E7F90157
:0E00E0003197F1F70197D9F7D2CFF894FFCFFF
:00000001FF
